{
  "contractName": "Bet",
  "abi": [
    {
      "inputs": [
        {
          "internalType": "string[]",
          "name": "_teams",
          "type": "string[]"
        }
      ],
      "payable": false,
      "stateMutability": "nonpayable",
      "type": "constructor"
    },
    {
      "constant": true,
      "inputs": [],
      "name": "isResultupdated",
      "outputs": [
        {
          "internalType": "bool",
          "name": "",
          "type": "bool"
        }
      ],
      "payable": false,
      "stateMutability": "view",
      "type": "function"
    },
    {
      "constant": true,
      "inputs": [
        {
          "internalType": "uint256",
          "name": "",
          "type": "uint256"
        }
      ],
      "name": "positionsCount",
      "outputs": [
        {
          "internalType": "uint256",
          "name": "",
          "type": "uint256"
        }
      ],
      "payable": false,
      "stateMutability": "view",
      "type": "function"
    },
    {
      "constant": true,
      "inputs": [],
      "name": "result",
      "outputs": [
        {
          "internalType": "uint8",
          "name": "",
          "type": "uint8"
        }
      ],
      "payable": false,
      "stateMutability": "view",
      "type": "function"
    },
    {
      "constant": true,
      "inputs": [
        {
          "internalType": "uint256",
          "name": "",
          "type": "uint256"
        }
      ],
      "name": "teams",
      "outputs": [
        {
          "internalType": "string",
          "name": "",
          "type": "string"
        }
      ],
      "payable": false,
      "stateMutability": "view",
      "type": "function"
    },
    {
      "constant": false,
      "inputs": [
        {
          "internalType": "uint256",
          "name": "option",
          "type": "uint256"
        }
      ],
      "name": "bet",
      "outputs": [],
      "payable": false,
      "stateMutability": "nonpayable",
      "type": "function"
    },
    {
      "constant": false,
      "inputs": [
        {
          "internalType": "uint8",
          "name": "_outcome",
          "type": "uint8"
        }
      ],
      "name": "updateResult",
      "outputs": [],
      "payable": false,
      "stateMutability": "nonpayable",
      "type": "function"
    },
    {
      "constant": true,
      "inputs": [],
      "name": "getPositionsCount",
      "outputs": [
        {
          "internalType": "uint256[]",
          "name": "",
          "type": "uint256[]"
        }
      ],
      "payable": false,
      "stateMutability": "view",
      "type": "function"
    },
    {
      "constant": true,
      "inputs": [],
      "name": "getIsResultUpdated",
      "outputs": [
        {
          "internalType": "bool",
          "name": "",
          "type": "bool"
        }
      ],
      "payable": false,
      "stateMutability": "view",
      "type": "function"
    }
  ],
  "bytecode": "0x60806040523480156200001157600080fd5b5060405162000cb538038062000cb583398181016040526200003791908101906200037a565b80600090805190602001906200004f929190620000bc565b506004604051908082528060200260200182016040528015620000815781602001602082028038833980820191505090505b50600190805190602001906200009992919062000123565b506000600260006101000a81548160ff0219169083151502179055505062000479565b82805482825590600052602060002090810192821562000110579160200282015b828111156200010f578251829080519060200190620000fe92919062000175565b5091602001919060010190620000dd565b5b5090506200011f9190620001fc565b5090565b82805482825590600052602060002090810192821562000162579160200282015b828111156200016157825182559160200191906001019062000144565b5b5090506200017191906200022d565b5090565b828054600181600116156101000203166002900490600052602060002090601f016020900481019282601f10620001b857805160ff1916838001178555620001e9565b82800160010185558215620001e9579182015b82811115620001e8578251825591602001919060010190620001cb565b5b509050620001f891906200022d565b5090565b6200022a91905b808211156200022657600081816200021c919062000255565b5060010162000203565b5090565b90565b6200025291905b808211156200024e57600081600090555060010162000234565b5090565b90565b50805460018160011615610100020316600290046000825580601f106200027d57506200029e565b601f0160209004906000526020600020908101906200029d91906200022d565b5b50565b600082601f830112620002b357600080fd5b8151620002ca620002c482620003ed565b620003bf565b9150818183526020840193506020810190508360005b83811015620003145781518601620002f988826200031e565b845260208401935060208301925050600181019050620002e0565b5050505092915050565b600082601f8301126200033057600080fd5b815162000347620003418262000416565b620003bf565b915080825260208301602083018583830111156200036457600080fd5b6200037183828462000443565b50505092915050565b6000602082840312156200038d57600080fd5b600082015167ffffffffffffffff811115620003a857600080fd5b620003b684828501620002a1565b91505092915050565b6000604051905081810181811067ffffffffffffffff82111715620003e357600080fd5b8060405250919050565b600067ffffffffffffffff8211156200040557600080fd5b602082029050602081019050919050565b600067ffffffffffffffff8211156200042e57600080fd5b601f19601f8301169050602081019050919050565b60005b838110156200046357808201518184015260208101905062000446565b8381111562000473576000848401525b50505050565b61082c80620004896000396000f3fe608060405234801561001057600080fd5b50600436106100885760003560e01c80637365870b1161005b5780637365870b14610129578063a6d8848514610145578063cdbc5ec914610163578063dbea7db41461017f57610088565b80631ca3b0cb1461008d5780632014678d146100ab5780633ed2b77a146100db578063653721471461010b575b600080fd5b61009561019d565b6040516100a2919061062a565b60405180910390f35b6100c560048036036100c0919081019061046d565b6101f5565b6040516100d291906106c9565b60405180910390f35b6100f560048036036100f0919081019061046d565b610216565b6040516101029190610667565b60405180910390f35b6101136102cf565b60405161012091906106e4565b60405180910390f35b610143600480360361013e919081019061046d565b6102e2565b005b61014d61036a565b60405161015a919061064c565b60405180910390f35b61017d60048036036101789190810190610496565b610381565b005b610187610430565b604051610194919061064c565b60405180910390f35b606060018054806020026020016040519081016040528092919081815260200182805480156101eb57602002820191906000526020600020905b8154815260200190600101908083116101d7575b5050505050905090565b6001818154811061020257fe5b906000526020600020016000915090505481565b6000818154811061022357fe5b906000526020600020016000915090508054600181600116156101000203166002900480601f0160208091040260200160405190810160405280929190818152602001828054600181600116156101000203166002900480156102c75780601f1061029c576101008083540402835291602001916102c7565b820191906000526020600020905b8154815290600101906020018083116102aa57829003601f168201915b505050505081565b600260019054906101000a900460ff1681565b806000111580156102f35750600481105b610332576040517f08c379a000000000000000000000000000000000000000000000000000000000815260040161032990610689565b60405180910390fd5b600180828154811061034057fe5b9060005260206000200154016001828154811061035957fe5b906000526020600020018190555050565b6000600260009054906101000a900460ff16905090565b8060ff166000108015610397575060048160ff16105b6103d6576040517f08c379a00000000000000000000000000000000000000000000000000000000081526004016103cd906106a9565b60405180910390fd5b60011515600260009054906101000a900460ff16151515146103f757600080fd5b6001600260006101000a81548160ff02191690831515021790555080600260016101000a81548160ff021916908360ff16021790555050565b600260009054906101000a900460ff1681565b600081359050610452816107bb565b92915050565b600081359050610467816107d2565b92915050565b60006020828403121561047f57600080fd5b600061048d84828501610443565b91505092915050565b6000602082840312156104a857600080fd5b60006104b684828501610458565b91505092915050565b60006104cb83836105fd565b60208301905092915050565b60006104e28261070f565b6104ec8185610732565b93506104f7836106ff565b8060005b8381101561052857815161050f88826104bf565b975061051a83610725565b9250506001810190506104fb565b5085935050505092915050565b61053e81610754565b82525050565b600061054f8261071a565b6105598185610743565b9350610569818560208601610777565b610572816107aa565b840191505092915050565b600061058a600e83610743565b91507f496e76616c6964206f7074696f6e0000000000000000000000000000000000006000830152602082019050919050565b60006105ca600f83610743565b91507f696e76616c6964206f7574636f6d6500000000000000000000000000000000006000830152602082019050919050565b61060681610760565b82525050565b61061581610760565b82525050565b6106248161076a565b82525050565b6000602082019050818103600083015261064481846104d7565b905092915050565b60006020820190506106616000830184610535565b92915050565b600060208201905081810360008301526106818184610544565b905092915050565b600060208201905081810360008301526106a28161057d565b9050919050565b600060208201905081810360008301526106c2816105bd565b9050919050565b60006020820190506106de600083018461060c565b92915050565b60006020820190506106f9600083018461061b565b92915050565b6000819050602082019050919050565b600081519050919050565b600081519050919050565b6000602082019050919050565b600082825260208201905092915050565b600082825260208201905092915050565b60008115159050919050565b6000819050919050565b600060ff82169050919050565b60005b8381101561079557808201518184015260208101905061077a565b838111156107a4576000848401525b50505050565b6000601f19601f8301169050919050565b6107c481610760565b81146107cf57600080fd5b50565b6107db8161076a565b81146107e657600080fd5b5056fea365627a7a72315820ea0c06a257cb53ced869ab7b9e58138f27ff8248bf82c1b6eca5cdfe40c74c5a6c6578706572696d656e74616cf564736f6c63430005100040",
  "source": "// SPDX-License-Identifier: MIT\npragma solidity ^0.5.16;\npragma experimental ABIEncoderV2;\n\ncontract Bet {\n    string[] public teams;\n    //0 for no result\n    //1 for t1 win\n    //2 for t2 win\n    //3 for tie/draw\n\n    //mapping (address => uint) public positions;\n\n    uint256[] public positionsCount;\n\n    bool public isResultupdated;\n\n    uint8 public result;\n\n    constructor(string[] memory _teams) public {\n        teams = _teams;\n        positionsCount = new uint256[](4);\n        isResultupdated = false;\n        //positions.length = 4;\n    }\n\n    function bet(uint256 option) public {\n        require(0 <= option && option < 4, \"Invalid option\");\n        positionsCount[option] = positionsCount[option] + 1;\n    }\n\n    function updateResult(uint8 _outcome) public {\n        require(0 < _outcome && _outcome < 4, \"invalid outcome\");\n        require(!isResultupdated==true);\n            //to send funds based on bet and the result\n            isResultupdated = true;\n            result = _outcome;\n    }\n\n    function getPositionsCount() public view returns (uint256[] memory) {\n        return positionsCount;\n    }\n\n    function getIsResultUpdated() public view returns (bool){\n        return isResultupdated;\n    }\n}\n",
  "sourcePath": "/Users/arvindchellapondy/Workspace/block/wato/contracts/Bet.sol",
  "compiler": {
    "name": "solc",
    "version": "0.5.16+commit.9c3226ce.Emscripten.clang"
  },
  "schemaVersion": "3.4.1",
  "updatedAt": "2021-07-09T22:13:07.988Z",
  "networkType": "ethereum",
  "devdoc": {
    "methods": {}
  },
  "userdoc": {
    "methods": {}
  }
}