{
  "contractName": "Voting",
  "abi": [
    {
      "inputs": [
        {
          "internalType": "string[]",
          "name": "_options",
          "type": "string[]"
        }
      ],
      "payable": false,
      "stateMutability": "nonpayable",
      "type": "constructor"
    },
    {
      "constant": true,
      "inputs": [
        {
          "internalType": "uint256",
          "name": "",
          "type": "uint256"
        }
      ],
      "name": "options",
      "outputs": [
        {
          "internalType": "string",
          "name": "",
          "type": "string"
        }
      ],
      "payable": false,
      "stateMutability": "view",
      "type": "function"
    },
    {
      "constant": true,
      "inputs": [
        {
          "internalType": "address",
          "name": "",
          "type": "address"
        }
      ],
      "name": "positions",
      "outputs": [
        {
          "internalType": "uint256",
          "name": "",
          "type": "uint256"
        }
      ],
      "payable": false,
      "stateMutability": "view",
      "type": "function"
    },
    {
      "constant": true,
      "inputs": [
        {
          "internalType": "uint256",
          "name": "",
          "type": "uint256"
        }
      ],
      "name": "votes",
      "outputs": [
        {
          "internalType": "uint256",
          "name": "",
          "type": "uint256"
        }
      ],
      "payable": false,
      "stateMutability": "view",
      "type": "function"
    },
    {
      "constant": false,
      "inputs": [
        {
          "internalType": "uint256",
          "name": "option",
          "type": "uint256"
        }
      ],
      "name": "vote",
      "outputs": [],
      "payable": false,
      "stateMutability": "nonpayable",
      "type": "function"
    },
    {
      "constant": true,
      "inputs": [],
      "name": "getoptions",
      "outputs": [
        {
          "internalType": "string[]",
          "name": "",
          "type": "string[]"
        }
      ],
      "payable": false,
      "stateMutability": "view",
      "type": "function"
    },
    {
      "constant": true,
      "inputs": [],
      "name": "getVotes",
      "outputs": [
        {
          "internalType": "uint256[]",
          "name": "",
          "type": "uint256[]"
        }
      ],
      "payable": false,
      "stateMutability": "view",
      "type": "function"
    }
  ],
  "bytecode": "0x60806040523480156200001157600080fd5b5060405162000ce638038062000ce6833981810160405262000037919081019062000308565b80600190805190602001906200004f9291906200006d565b50600180549050600081620000659190620000d4565b505062000407565b828054828255906000526020600020908101928215620000c1579160200282015b82811115620000c0578251829080519060200190620000af92919062000103565b50916020019190600101906200008e565b5b509050620000d091906200018a565b5090565b815481835581811115620000fe57818360005260206000209182019101620000fd9190620001bb565b5b505050565b828054600181600116156101000203166002900490600052602060002090601f016020900481019282601f106200014657805160ff191683800117855562000177565b8280016001018555821562000177579182015b828111156200017657825182559160200191906001019062000159565b5b509050620001869190620001bb565b5090565b620001b891905b80821115620001b45760008181620001aa9190620001e3565b5060010162000191565b5090565b90565b620001e091905b80821115620001dc576000816000905550600101620001c2565b5090565b90565b50805460018160011615610100020316600290046000825580601f106200020b57506200022c565b601f0160209004906000526020600020908101906200022b9190620001bb565b5b50565b600082601f8301126200024157600080fd5b81516200025862000252826200037b565b6200034d565b9150818183526020840193506020810190508360005b83811015620002a25781518601620002878882620002ac565b8452602084019350602083019250506001810190506200026e565b5050505092915050565b600082601f830112620002be57600080fd5b8151620002d5620002cf82620003a4565b6200034d565b91508082526020830160208301858383011115620002f257600080fd5b620002ff838284620003d1565b50505092915050565b6000602082840312156200031b57600080fd5b600082015167ffffffffffffffff8111156200033657600080fd5b62000344848285016200022f565b91505092915050565b6000604051905081810181811067ffffffffffffffff821117156200037157600080fd5b8060405250919050565b600067ffffffffffffffff8211156200039357600080fd5b602082029050602081019050919050565b600067ffffffffffffffff821115620003bc57600080fd5b601f19601f8301169050602081019050919050565b60005b83811015620003f1578082015181840152602081019050620003d4565b8381111562000401576000848401525b50505050565b6108cf80620004176000396000f3fe608060405234801561001057600080fd5b50600436106100625760003560e01c80630121b93f146100675780630dc9601514610083578063409e2205146100a157806355f57510146100d15780635df8133014610101578063e1bb210314610131575b600080fd5b610081600480360361007c91908101906104a6565b61014f565b005b61008b610220565b60405161009891906106c0565b60405180910390f35b6100bb60048036036100b691908101906104a6565b610278565b6040516100c891906106e2565b60405180910390f35b6100eb60048036036100e6919081019061047d565b610331565b6040516100f89190610724565b60405180910390f35b61011b600480360361011691908101906104a6565b610349565b6040516101289190610724565b60405180910390f35b61013961036a565b604051610146919061069e565b60405180910390f35b80600011158015610164575060018054905081105b6101a3576040517f08c379a000000000000000000000000000000000000000000000000000000000815260040161019a90610704565b60405180910390fd5b6001600082815481106101b257fe5b906000526020600020015401600082815481106101cb57fe5b906000526020600020018190555080600260003373ffffffffffffffffffffffffffffffffffffffff1673ffffffffffffffffffffffffffffffffffffffff1681526020019081526020016000208190555050565b6060600080548060200260200160405190810160405280929190818152602001828054801561026e57602002820191906000526020600020905b81548152602001906001019080831161025a575b5050505050905090565b6001818154811061028557fe5b906000526020600020016000915090508054600181600116156101000203166002900480601f0160208091040260200160405190810160405280929190818152602001828054600181600116156101000203166002900480156103295780601f106102fe57610100808354040283529160200191610329565b820191906000526020600020905b81548152906001019060200180831161030c57829003601f168201915b505050505081565b60026020528060005260406000206000915090505481565b6000818154811061035657fe5b906000526020600020016000915090505481565b60606001805480602002602001604051908101604052809291908181526020016000905b8282101561044a578382906000526020600020018054600181600116156101000203166002900480601f0160208091040260200160405190810160405280929190818152602001828054600181600116156101000203166002900480156104365780601f1061040b57610100808354040283529160200191610436565b820191906000526020600020905b81548152906001019060200180831161041957829003601f168201915b50505050508152602001906001019061038e565b50505050905090565b6000813590506104628161085e565b92915050565b60008135905061047781610875565b92915050565b60006020828403121561048f57600080fd5b600061049d84828501610453565b91505092915050565b6000602082840312156104b857600080fd5b60006104c684828501610468565b91505092915050565b60006104db83836105ce565b905092915050565b60006104ef8383610680565b60208301905092915050565b60006105068261075f565b610510818561079a565b9350836020820285016105228561073f565b8060005b8581101561055e578484038952815161053f85826104cf565b945061054a83610780565b925060208a01995050600181019050610526565b50829750879550505050505092915050565b600061057b8261076a565b61058581856107ab565b93506105908361074f565b8060005b838110156105c15781516105a888826104e3565b97506105b38361078d565b925050600181019050610594565b5085935050505092915050565b60006105d982610775565b6105e381856107bc565b93506105f381856020860161081a565b6105fc8161084d565b840191505092915050565b600061061282610775565b61061c81856107cd565b935061062c81856020860161081a565b6106358161084d565b840191505092915050565b600061064d600e836107cd565b91507f496e76616c6964206f7074696f6e0000000000000000000000000000000000006000830152602082019050919050565b61068981610810565b82525050565b61069881610810565b82525050565b600060208201905081810360008301526106b881846104fb565b905092915050565b600060208201905081810360008301526106da8184610570565b905092915050565b600060208201905081810360008301526106fc8184610607565b905092915050565b6000602082019050818103600083015261071d81610640565b9050919050565b6000602082019050610739600083018461068f565b92915050565b6000819050602082019050919050565b6000819050602082019050919050565b600081519050919050565b600081519050919050565b600081519050919050565b6000602082019050919050565b6000602082019050919050565b600082825260208201905092915050565b600082825260208201905092915050565b600082825260208201905092915050565b600082825260208201905092915050565b60006107e9826107f0565b9050919050565b600073ffffffffffffffffffffffffffffffffffffffff82169050919050565b6000819050919050565b60005b8381101561083857808201518184015260208101905061081d565b83811115610847576000848401525b50505050565b6000601f19601f8301169050919050565b610867816107de565b811461087257600080fd5b50565b61087e81610810565b811461088957600080fd5b5056fea365627a7a7231582019e0bcb7827deb369b436dc3b50bcfe7224aa0fbf610a4d65e27ab6c05c6d0766c6578706572696d656e74616cf564736f6c63430005100040",
  "source": "// SPDX-License-Identifier: MIT\npragma solidity >=0.4.22 <0.9.0;\npragma experimental ABIEncoderV2;\n\ncontract Voting{\n\n    uint[] public votes;\n    string[] public options;\n\n    mapping (address => uint) public positions; \n\n\nconstructor(string[] memory _options) public{\n    options = _options;\n    votes.length = options.length;\n}\n\nfunction vote(uint option) public{\n    require(0<=option && option<options.length, \"Invalid option\");\n    votes[option] = votes[option] + 1;\n\n    positions[msg.sender] = option;\n}\n\nfunction getoptions() public view returns(string[] memory){\n    return options;\n}\n\nfunction getVotes() public view returns(uint[] memory){\n    return votes;\n}\n}",
  "sourcePath": "/Users/arvindchellapondy/Workspace/block/wato/contracts/Voting.sol",
  "compiler": {
    "name": "solc",
    "version": "0.5.16+commit.9c3226ce.Emscripten.clang"
  },
  "schemaVersion": "3.4.1",
  "updatedAt": "2021-07-09T22:13:07.481Z",
  "networkType": "ethereum",
  "devdoc": {
    "methods": {}
  },
  "userdoc": {
    "methods": {}
  }
}